:020000040000FA
:04000000E5EF0DF02B
:10060000003F065B4F666D7D077F6F777C395E79B3
:1006100071554C4452535841425973202020202098
:1006200020202020202020202020200020202020EA
:100630005072657373616F3A20202020003C2020A7
:100640004E6976656C20416775612020200020206E
:1006500054656D70657261747572613A2020002076
:1006600020204E6976656C20416775613A20200034
:100670003C202020205072657373616F2020203E43
:1006800000202054656D7065726174757261202060
:100690003E00496E696369616E646F2E2E2E0020E4
:1006A000252020202020200020BA432020202020A8
:0B06B00000206261722020202000006A
:1006BC0002BE6CEF03F0025007E1080E015CD8B0EB
:1006CC006AEF03F06CEF03F096EF03F003500410A5
:1006DC00D8B473EF03F075EF03F085EF03F001C0AE
:1006EC0005F0010E066E052A7EEF03F0D890063653
:1006FC00052E7CEF03F00650921284EF04F001C03B
:10070C0005F0010E066E052A8EEF03F0D890063622
:10071C00052E8CEF03F00650FF0A921684EF04F0BE
:10072C0002BEA4EF03F0025007E1100E015CD8B03A
:10073C00A2EF03F0A4EF03F0D2EF03F00350041088
:10074C00D8B4ABEF03F0ADEF03F0BFEF03F001C093
:10075C0005F0F80E0526010E066E052AB8EF03F01B
:10076C00D8900636052EB6EF03F00650931284EFA0
:10077C0004F001C005F0F80E0526010E066E052AE0
:10078C00CAEF03F0D8900636052EC8EF03F00650DA
:10079C00FF0A931684EF04F002BEE0EF03F0025060
:1007AC0007E1180E015CD8B0DEEF03F0E0EF03F0C8
:1007BC000EEF04F003500410D8B4E7EF03F0E9EFA8
:1007CC0003F0FBEF03F001C005F0F00E0526010E5F
:1007DC00066E052AF4EF03F0D8900636052EF2EFDC
:1007EC0003F00650941284EF04F001C005F0F00EF3
:1007FC000526010E066E052A06EF04F0D890063683
:10080C00052E04EF04F00650FF0A941684EF04F052
:10081C0002BE1CEF04F0025007E1200E015CD8B0C0
:10082C001AEF04F01CEF04F04AEF04F0035004102C
:10083C00D8B423EF04F025EF04F037EF04F001C037
:10084C0005F0E80E0526010E066E052A30EF04F0C1
:10085C00D8900636052E2EEF04F00650951284EF34
:10086C0004F001C005F0E80E0526010E066E052AFF
:10087C0042EF04F0D8900636052E40EF04F00650F7
:10088C00FF0A951684EF04F002BE58EF04F00250F4
:10089C0007E1280E015CD8B056EF04F058EF04F0D5
:1008AC0084EF04F003500410D8B45FEF04F061EF50
:1008BC0004F073EF04F001C005F0E00E0526010E04
:1008CC00066E052A6CEF04F0D8900636052E6AEFFA
:1008DC0004F00650961284EF04F001C005F0E00E0F
:1008EC000526010E066E052A7EEF04F0D89006361A
:1008FC00052E7CEF04F00650FF0A9616120002BE7D
:10090C0093EF04F0025007E1080E015CD8B091EFB0
:10091C0004F093EF04F0BDEF04F003500410D8B4CE
:10092C009AEF04F09CEF04F0ACEF04F001C005F07A
:10093C00010E066E052AA5EF04F0D8900636052E9A
:10094C00A3EF04F006508012ABEF05F001C005F0E8
:10095C00010E066E052AB5EF04F0D8900636052E6A
:10096C00B3EF04F00650FF0A8016ABEF05F002BEA1
:10097C00CBEF04F0025007E1100E015CD8B0C9EFC8
:10098C0004F0CBEF04F0F9EF04F0F80E0126FF0EA3
:10099C00022203500410D8B4D6EF04F0D8EF04F0C0
:1009AC00E8EF04F001C005F0010E066E052AE1EF38
:1009BC0004F0D8900636052EDFEF04F006508112B5
:1009CC00ABEF05F001C005F0010E066E052AF1EF44
:1009DC0004F0D8900636052EEFEF04F00650FF0A0F
:1009EC008116ABEF05F002BE07EF05F0025007E1F0
:1009FC00180E015CD8B005EF05F007EF05F035EFE8
:100A0C0005F0F00E0126FF0E022203500410D8B49C
:100A1C0012EF05F014EF05F024EF05F001C005F01E
:100A2C00010E066E052A1DEF05F0D8900636052E30
:100A3C001BEF05F006508212ABEF05F001C005F07C
:100A4C00010E066E052A2DEF05F0D8900636052E00
:100A5C002BEF05F00650FF0A8216ABEF05F002BE35
:100A6C0043EF05F0025007E1200E015CD8B041EFD6
:100A7C0005F043EF05F071EF05F0E80E0126FF0ECF
:100A8C00022203500410D8B44EEF05F050EF05F0DD
:100A9C0060EF05F001C005F0010E066E052A59EF56
:100AAC0005F0D8900636052E57EF05F00650831248
:100ABC00ABEF05F001C005F0010E066E052A69EFDB
:100ACC0005F0D8900636052E67EF05F00650FF0AA4
:100ADC008316ABEF05F002BE7FEF05F0025007E185
:100AEC00280E015CD8B07DEF05F07FEF05F0ABEF81
:100AFC0005F0E00E0126FF0E022203500410D8B4BC
:100B0C008AEF05F08CEF05F09CEF05F001C005F0C5
:100B1C00010E066E052A95EF05F0D8900636052EC7
:100B2C0093EF05F006508412ABEF05F001C005F011
:100B3C00010E066E052AA5EF05F0D8900636052E97
:100B4C00A3EF05F00650FF0A84161200096E06EC9E
:100B5C000FF01B50011809E11C500218D8B4B9EF62
:100B6C0005F0BBEF05F085EF06F006EC0FF001C0C9
:100B7C001BF002C01CF015EC0CF00009D8B4C9EF46
:100B8C0005F0CBEF05F085EF06F015EC0CF02A6EB6
:100B9C0070EF06F0020E0618D8A4D7EF05F0D9EFC7
:100BAC0005F0F0EF05F00904D8A4DFEF05F0E1EF54
:100BBC0005F0F0EF05F0180E2D5C010E2E58D8B094
:100BCC00EAEF05F0ECEF05F0F0EF05F02D4A2E2AD8
:100BDC0085EF06F0020E0618D8A4F7EF05F0F9EF32
:100BEC0005F011EF06F0020E0918D8A400EF06F07C
:100BFC0002EF06F011EF06F0305007E1140E2F5CF7
:100C0C00D8B00BEF06F00DEF06F011EF06F02F4AFF
:100C1C00302A85EF06F0020E0618D8A418EF06F05D
:100C2C001AEF06F085EF06F0030E0918D8A421EF91
:100C3C0006F023EF06F085EF06F0650E316029EF24
:100C4C0006F02BEF06F085EF06F0312A85EF06F063
:100C5C00020E0618D8A435EF06F037EF06F044EF75
:100C6C0006F00904D8A43DEF06F03FEF06F044EF80
:100C7C0006F02D06D8A02E0685EF06F0020E0618FB
:100C8C00D8A44BEF06F04DEF06F05BEF06F0020E2A
:100C9C000918D8A454EF06F056EF06F05BEF06F0F7
:100CAC002F06D8A0300685EF06F0020E0618D8A441
:100CBC0062EF06F064EF06F085EF06F0030E0918FC
:100CCC00D8A46BEF06F06DEF06F085EF06F0310659
:100CDC0085EF06F02A50076E086A0850000AD8B44F
:100CEC007AEF06F085EF06F00750440AD8B42EEFE1
:100CFC0006F0110AD8B4D0EF05F085EF06F012001B
:100D0C0002BE94EF06F0025007E1080E015CD8B069
:100D1C0092EF06F094EF06F0A8EF06F001C003F096
:100D2C00010E046E032A9DEF06F0D8900436032EB4
:100D3C009BEF06F004508014056E0550016E026A9C
:100D4C003AEF07F002BEB6EF06F0025007E1100EC4
:100D5C00015CD8B0B4EF06F0B6EF06F0CCEF06F0BD
:100D6C0001C003F0F80E0326010E046E032AC1EF36
:100D7C0006F0D8900436032EBFEF06F00450811411
:100D8C00056E0550016E026A3AEF07F002BEDAEF0B
:100D9C0006F0025007E1180E015CD8B0D8EF06F04F
:100DAC00DAEF06F0F0EF06F001C003F0F00E0326C8
:100DBC00010E046E032AE5EF06F0D8900436032EDC
:100DCC00E3EF06F004508214056E0550016E026AC2
:100DDC003AEF07F002BEFEEF06F0025007E1200EDC
:100DEC00015CD8B0FCEF06F0FEEF06F014EF07F054
:100DFC0001C003F0E80E0326010E046E032A09EF6E
:100E0C0007F0D8900436032E07EF07F00450831434
:100E1C00056E0550016E026A3AEF07F002BE22EF32
:100E2C0007F0025007E1280E015CD8B020EF07F064
:100E3C0022EF07F038EF07F001C003F0E00E0326B5
:100E4C00010E046E032A2DEF07F0D8900436032E02
:100E5C002BEF07F004508414056E0550016E026AE6
:100E6C003AEF07F0016802681200000E226E000EC5
:100E7C00216E000E0E6E000E0D6E0EBE4FEF07F0C3
:100E8C000E5009E1050E0D5CD8A04FEF07F051EFA5
:100E9C0007F053EF07F0B4EF07F00DC00AF0030EA4
:100EAC000A26010E0B6E000E0C6E0A2A61EF07F07B
:100EBC00D8900B360C360A2E5EEF07F00BC007F0FD
:100ECC000CC008F07EEC0DF0000E026E0A0E016EE6
:100EDC0086EC06F001500210D8B477EF07F079EFEA
:100EEC0007F08CEF07F00DC00AF0010E0B6E000E30
:100EFC000C6E0A2A85EF07F0D8900B360C360A2EAA
:100F0C0082EF07F00B5021120C502212000E026ED1
:100F1C00090E016E86EC06F001500210D8B499EF60
:100F2C0007F09BEF07F0B0EF07F00DC00AF0050ECD
:100F3C000A26010E0B6E000E0C6E0A2AA9EF07F0A2
:100F4C00D8900B360C360A2EA6EF07F00B50211258
:100F5C000C5022120D4A0E2A43EF07F021501F1895
:100F6C0007E122502018D8A4BEEF07F0C0EF07F01D
:100F7C00C3EF07F02C06C9EF07F0010E2C6E21C051
:100F8C001FF022C020F02C50D8A4CFEF07F0D1EFE7
:100F9C0007F0D5EF07F01FC023F020C024F012009B
:100FAC00000E956E000E1A6E40EC0AF000EC0EF07E
:100FBC00D9EC0EF0E6EC0EF00BEC0FF0000EC5ECDD
:100FCC000CF0920E0F6E060E106E53EC0DF00A0E16
:100FDC00D8EC0BF0010ECAEC0EF00B0E026EB80E34
:100FEC00016EAAEC0EF04CEF08F0F5EC08F01DEFDA
:100FFC0008F032503FEC0BF032C006F03350ACEC42
:10100C0005F036EF08F03250F2EC0AF032C006F080
:10101C003350ACEC05F036EF08F032508CEC0BF0A2
:10102C0032C006F03350ACEC05F036EF08F033501C
:10103C00186E196A1950000AD8B427EF08F036EF69
:10104C0008F01850010AD8B4FFEF07F0030AD8B41F
:10105C0009EF08F0010AD8B413EF08F036EF08F0E6
:10106C00010E1A6E69EF08F03BEC07F0020E1A6ED7
:10107C0069EF08F071EC09F0030E1A6E69EF08F0D5
:10108C0028EC0DF0000E1A6E69EF08F01A50186E6D
:10109C00196A1950000AD8B456EF08F048EF08F056
:1010AC001850000AD8B4FBEF07F0010AD8B43AEF95
:1010BC0008F0030AD8B440EF08F0010AD8B446EFA0
:1010CC0008F048EF08F0FEEC0EF0F3EF07F000EF3D
:1010DC0000F0000E0A6E08BE78EF08F076EF08F00C
:1010EC0082EF08F0081E071E061E056C000E062275
:1010FC0007220822010E0A6E04BE89EF08F087EF62
:10110C0008F093EF08F0041E031E021E016C000E83
:10111C00022203220422010E0A1A000E0B6E000E8C
:10112C000C6E000E0D6E000E0E6E055006100710A4
:10113C000810D8B4A4EF08F0A6EF08F0DCEF08F024
:10114C00010E096EB0EF08F0D8900536063607365A
:10115C000836092A08AEB5EF08F0B7EF08F0AAEF89
:10116C0008F0D8900B360C360D360E360550015C57
:10117C00065002580750035808500458D8A0C9EF1D
:10118C0008F0CBEF08F0D4EF08F00550015E0650E4
:10119C00025A0750035A0850045A0B80D890083250
:1011AC00073206320532092EB7EF08F00A50D8B4D0
:1011BC00E2EF08F0E4EF08F0ECEF08F00E1E0D1E65
:1011CC000C1E0B6C000E0C220D220E220BC001F01B
:1011DC000CC002F00DC003F00EC004F0120006ECBF
:1011EC000FF01D50011809E11E500218D8B401EF80
:1011FC0009F003EF09F070EF09F006EC0FF001C0F5
:10120C001DF002C01EF015EC0CF00009D8B411EF63
:10121C0009F013EF09F070EF09F015EC0CF02B6EE0
:10122C00520E2B18D8A41DEF09F01FEF09F030EF68
:10123C0009F03204D8A425EF09F027EF09F030EFBC
:10124C0009F0040E33602DEF09F02FEF09F030EFA9
:10125C0009F0332A4C0E2B18D8A437EF09F039EFCC
:10126C0009F04AEF09F03204D8A43FEF09F041EF3E
:10127C0009F04AEF09F03350D8B447EF09F049EFC1
:10128C0009F04AEF09F03306730E2B18D8A451EF6E
:10129C0009F053EF09F05CEF09F0030E326059EFDF
:1012AC0009F05BEF09F05CEF09F0322A530E2B18B2
:1012BC00D8A463EF09F065EF09F070EF09F0325034
:1012CC00D8B46BEF09F06DEF09F070EF09F032064E
:1012DC0070EF09F0120031EC0EF0046E0450D8B42B
:1012EC007AEF09F07CEF09F0DDEF09F0BCEF09F0C3
:1012FC00540EF3EC0EF02D4A2E2ADDEF09F0700E91
:10130C00F3EC0EF02D502E10D8B48FEF09F091EFB6
:10131C0009F0DDEF09F02D06D8A02E06DDEF09F05F
:10132C00500EF3EC0EF02F4A302ADDEF09F0700E60
:10133C00F3EC0EF02F503010D8B4A7EF09F0A9EF52
:10134C0009F0DDEF09F02F06D8A03006DDEF09F02B
:10135C004E0EF3EC0EF03150D8B4B7EF09F0B9EFF4
:10136C0009F0DDEF09F03106DDEF09F00450026EF3
:10137C00036A0350000AD8B4C6EF09F0DDEF09F098
:10138C0002504E0AD8B4AEEF09F01E0AD8B496EF4C
:10139C0009F0040AD8B47EEF09F0240AD8B49DEF02
:1013AC0009F0040AD8B485EF09F0DDEF09F012005A
:1013BC00000E066E04BEE7EF09F0E5EF09F0EDEF65
:1013CC0009F0036C041ED8B0042A010E066E02BE8E
:1013DC00F4EF09F0F2EF09F0FAEF09F0016C021EDC
:1013EC00D8B0022A010E061A000E086E000E076E07
:1013FC0003500410D8B405EF0AF007EF0AF02FEFF2
:10140C000AF0010E056E0FEF0AF0D8900336043681
:10141C00052A04AE14EF0AF016EF0AF00BEF0AF0EF
:10142C00D890073608360350015C04500258D8A0F7
:10143C0022EF0AF024EF0AF029EF0AF00350015EC4
:10144C000450025A0780D89004320332052E16EF4E
:10145C000AF00650D8B435EF0AF037EF0AF03BEF3C
:10146C000AF0076C081ED8B0082A07C001F008C0A3
:10147C0002F01200000E026E1C0E016E000E046EC5
:10148C00000E036E5EEC03F0000E026E1D0E016E7C
:10149C00000E046E000E036E5EEC03F0C6EC0DF055
:1014AC00000E026E0F0E016E19EC0EF0000E0B6E9C
:1014BC00000E0A6E030E97EC0EF0000E026E050E77
:1014CC00016E19EC0EF0000E0B6E000E0A6E030E80
:1014DC0097EC0EF0000E026EA00E016E13EC0FF0E6
:1014EC00000E0B6E000E0A6E030E97EC0EF0000E43
:1014FC00026EA00E016E13EC0FF0000E0B6E000EC0
:10150C000A6E020E97EC0EF0000E026E0A0E016EC1
:10151C0019EC0EF0280ECAEC0EF00C0ECAEC0EF004
:10152C00010ECAEC0EF01200000E0E6E0ABEA3EFF6
:10153C000AF0A1EF0AF0A9EF0AF0096C0A1ED8B064
:10154C000A2A010E0E6E0CBEB0EF0AF0AEEF0AF0D6
:10155C00B4EF0AF00B6C0C1ED8B00C2A0B500C100C
:10156C00D8B4BBEF0AF0BDEF0AF0E1EF0AF0010EC0
:10157C000D6EC5EF0AF0D8900B360C360D2A0CAE5A
:10158C00CAEF0AF0CCEF0AF0C1EF0AF00B50095C7D
:10159C000C500A58D8A0D5EF0AF0D7EF0AF0DBEFC1
:1015AC000AF00B50095E0C500A5AD8900C320B32D0
:1015BC000D2ECCEF0AF00E50D8B4E7EF0AF0E9EF9D
:1015CC000AF0EDEF0AF0096C0A1ED8B00A2A09C01D
:1015DC0009F00AC00AF01200176E29EF0BF0800E0A
:1015EC00CAEC0EF0700E0F6E060E106E53EC0DF072
:1015FC00C00ECAEC0EF01B0E0F6E060E106E53ECE6
:10160C000DF03EEF0BF0800ECAEC0EF02C0E0F6EB0
:10161C00060E106E53EC0DF0C00ECAEC0EF0270E39
:10162C000F6E060E106E53EC0DF02FC00FF030C085
:10163C0010F08BEC0CF0B10E0F6E060E106E53EC1E
:10164C000DF03EEF0BF01750156E166A1650000A8F
:10165C00D8B433EF0BF03EEF0BF01550010AD8B4B1
:10166C00F5EF0AF0030AD8B409EF0BF03EEF0BF0DC
:10167C001200176E76EF0BF0800ECAEC0EF0810E96
:10168C000F6E060E106E53EC0DF0C00ECAEC0EF081
:10169C001B0E0F6E060E106E53EC0DF08BEF0BF055
:1016AC00800ECAEC0EF04E0E0F6E060E106E53EC42
:1016BC000DF0C00ECAEC0EF0270E0F6E060E106E5B
:1016CC0053EC0DF02DC00FF02EC010F08BEC0CF085
:1016DC00A80E0F6E060E106E53EC0DF08BEF0BF088
:1016EC001750156E166A1650000AD8B480EF0BF01E
:1016FC008BEF0BF01550010AD8B442EF0BF0030A34
:10170C00D8B456EF0BF08BEF0BF01200176EC2EF44
:10171C000BF0800ECAEC0EF03D0E0F6E060E106E26
:10172C0053EC0DF0C00ECAEC0EF01B0E0F6E060E35
:10173C00106E53EC0DF0D7EF0BF0800ECAEC0EF0E0
:10174C005F0E0F6E060E106E53EC0DF0C00ECAEC51
:10175C000EF0270E0F6E060E106E53EC0DF031C00E
:10176C000FF0106A8BEC0CF09F0E0F6E060E106EC5
:10177C0053EC0DF0D7EF0BF01750156E166A165090
:10178C00000AD8B4CCEF0BF0D7EF0BF01550010AD0
:10179C00D8B48FEF0BF0030AD8B4A3EF0BF0D7EF4C
:1017AC000BF01200016E000E026E0BEF0CF0000E2F
:1017BC00036E630E0364E5EF0BF0E7EF0BF0E9EF5C
:1017CC000BF00AEF0CF0000E046E280E0464F1EF1F
:1017DC000BF0F3EF0BF0F5EF0BF007EF0CF0000E46
:1017EC00056E020E0564FDEF0BF0FFEF0BF001EF41
:1017FC000CF004EF0CF0052AF7EF0BF0042AEBEFDA
:10180C000BF0032ADFEF0BF0022A0150025CD8A088
:10181C0012EF0CF014EF0CF0DDEF0BF01200000ED9
:10182C00056E000E046E04C001F0010E026E000E77
:10183C00036E012A25EF0CF0D89002360336012EE8
:10184C0022EF0CF023500216245003160250031002
:10185C00D8B433EF0CF035EF0CF03FEF0CF0110E69
:10186C000424F66E060E0520F76E0800F55050EFB6
:10187C000CF0044A052A05BE4DEF0CF0055009E1A9
:10188C000A0E045CD8A04DEF0CF04FEF0CF019EFE2
:10189C000CF0000E1200000E066E000E056E0350CA
:1018AC000410D8B45CEF0CF05EEF0CF086EF0CF08B
:1018BC00010E076E66EF0CF0D89003360436072A3B
:1018CC0004AE6BEF0CF06DEF0CF062EF0CF0D890F7
:1018DC00053606360350015C04500258D8A079EF47
:1018EC000CF07BEF0CF080EF0CF00350015E045019
:1018FC00025A0580D89004320332072E6DEF0CF09B
:10190C0005C001F006C002F01200030E126EE80EC4
:10191C00116EB7EF0CF011C003F012C004F00FC041
:10192C0001F010C002F0DEEC09F001C009F002C0B9
:10193C000AF0000E0C6E0A0E0B6E9AEC0AF00950AF
:10194C00300FBBEC0EF011C001F012C002F0000E13
:10195C00046E0A0E036EDEEC09F001C011F002C039
:10196C0012F012BEC4EF0CF0125006E11104D8B004
:10197C00C2EF0CF0C4EF0CF091EF0CF012000A6EF9
:10198C00010ECB24016E026A000E02220AC003F083
:10199C00046A71EC0EF001C00BF002C00CF00BC02D
:1019AC0001F00CC002F0000E046E190E036E51EC27
:1019BC000CF001C00BF002C00CF0FF0E0B16030E66
:1019CC000C160BC008F00CC009F0D8900932083284
:1019DC00D890093208320850BB6E0BC008F0030EC9
:1019EC0008160838F00BBA1212000D6E0DC00CF070
:1019FC000C3A0F0E0C160C50076E086A7EEC0DF0AC
:101A0C00000E026E1D0E016E0AC003F00BC004F036
:101A1C0085EC04F0A5EC0DF00DC00CF00F0E0C16BF
:101A2C000C50076E086A7EEC0DF0000E026E1D0E57
:101A3C00016E0AC003F00BC004F085EC04F0A5ECB9
:101A4C000DF01200305007E1150E2F5CD8B031EFBD
:101A5C000DF033EF0DF046EF0DF02D0E2D5C010E59
:101A6C002E58D8B03CEF0DF03EEF0DF046EF0DF0D8
:101A7C003150D8A444EF0DF046EF0DF04DEF0DF0C2
:101A8C00010E836E640EC5EC0CF052EF0DF0000EDF
:101A9C00C5EC0CF0020E836E1200000E146E000EDC
:101AAC00136E69EF0DF013500F24116E14501020AB
:101ABC00126E11C0F6FF12C0F7FF0800F550BBEC18
:101ACC000EF0134A142A13500F24116E14501020C8
:101ADC00126E11C0F6FF12C0F7FF0800F550000996
:101AEC00D8A47BEF0DF07DEF0DF059EF0DF0120047
:101AFC00000E026E080E016E000E046E000E036ED8
:101B0C0085EC04F0000E096E000E026E1E0E016EC6
:101B1C00800E0714036E046A85EC04F05CEC0EF086
:101B2C00D89007360836092A070E0964A0EF0DF085
:101B3C00A2EF0DF08AEF0DF047EC0EF01200000E44
:101B4C00026E1C0E016E000E046E010E036E85EC0F
:101B5C0004F0000E026E050E016E13EC0FF0000E79
:101B6C00026E1C0E016E000E046E000E036E85ECF0
:101B7C0004F0000E026E050E016E13EC0FF0120055
:101B8C00000E026E1F0E016E000E046E000E036E30
:101B9C005EEC03F0000E026E080E016E000E046E79
:101BAC00000E036E5EEC03F0000E026E1E0E016E54
:101BBC00000E046E000E036E5EEC03F012001E0E9F
:101BCC00F66E1E0EF76E000EF86E00EE2DF010EE97
:101BDC0007F00900F5CFEEFFE550E150FAE100EE19
:101BEC001BF0120EEE6AE806FDE1000EF86E000125
:101BFC00D6EF07F0C6EC0DF0000E026E0A0E016E69
:101C0C00000E046E010E036E5EEC03F0000E026E0D
:101C1C00090E016E000E046E010E036E5EEC03F0F5
:101C2C000C0EC16E1200000E056E000E046E21EF3C
:101C3C000EF0044A052A0150045C0550800A036E1C
:101C4C000250800A0358D8A02EEF0EF030EF0EF0A1
:101C5C001FEF0EF01200000E016EABA238EF0EF06B
:101C6C003AEF0EF03CEF0EF0AB98AB889EAA41EF2A
:101C7C000EF043EF0EF045EF0EF0AECF01F0015039
:101C8C001200000E026E1F0E016E000E046E010E8D
:101C9C00036E85EC04F0000E026E1F0E016E000E3A
:101CAC00046E000E036E85EC04F01200000E026E42
:101CBC00080E016E000E046E010E036E85EC04F02E
:101CCC00000E026E080E016E000E046E000E036E06
:101CDC0085EC04F0120001500302F3CF05F0F4CFB1
:101CEC0006F001500402F350062602500302F35092
:101CFC00062605C001F006C002F01200480E016E67
:101D0C00E80E026E010E036E000E046E0FC005F09D
:101D1C0010C006F0076A086A6FEC08F00104CB6E7D
:101D2C0012000C6E0CC007F0086A7EEC0DF0000E71
:101D3C00026E1D0E016E0AC003F00BC004F085ECA0
:101D4C0004F0A5EC0DF01200D8900134036E0234AF
:101D5C00046E031E041E320E035E000E045A045061
:101D6C00D76E03C0D6FFF29412000E6E000E0B6EEF
:101D7C00010E0A6E0E50FBEC0CF0000E026E500EB3
:101D8C00016E13EC0FF012000E6E000E0B6E000EB7
:101D9C000A6E0E50FBEC0CF0000E026E020E016E81
:101DAC0019EC0EF012002C0EAC6E900EAB6E080EF1
:101DBC00B86E000EB06E220EAF6E948C948E120024
:101DCC009492030ECA12CA840C0EBA6E000E106ED8
:101DDC00640E0F6E84EC0EF01200016E9EA8F9EFEB
:101DEC000EF0FBEF0EF0F4EF0EF001C0ADFF1200A1
:101DFC00F2A403EF0FF005EF0FF0FEEF0EF0120060
:101E0C0023C001F024C002F01200080ED56ED58E4E
:091E1C001200FA000F0050010150
:021E26001200A8
:020000040020DA
:08000000FFFFFFFFFFFFFFFF00
:020000040030CA
:0E000000FF027100FF8380FF0FC00FE00F4072
:00000001FF
