:020000040000FA
:0400000082EF0EF08D
:10060000003F065B4F666D7D077F6F777C395E79B3
:1006100071554C4452535841425973202020202098
:1006200020202020202020202020200020202020EA
:100630005072657373616F3A20202020003C2020A7
:100640004E6976656C20416775612020200020206E
:1006500054656D70657261747572613A2020002076
:1006600020204E6976656C20416775613A20200034
:100670003C202020205072657373616F2020203E43
:1006800000202054656D7065726174757261202060
:100690003E00496E696369616E646F2E2E2E0020E4
:1006A000252020202020200020BA432020202020A8
:0B06B00000206261722020202000006A
:1006BC0002BE6CEF03F0025007E1080E015CD8B0EB
:1006CC006AEF03F06CEF03F096EF03F003500410A5
:1006DC00D8B473EF03F075EF03F085EF03F001C0AE
:1006EC0005F0010E066E052A7EEF03F0D890063653
:1006FC00052E7CEF03F00650921284EF04F001C03B
:10070C0005F0010E066E052A8EEF03F0D890063622
:10071C00052E8CEF03F00650FF0A921684EF04F0BE
:10072C0002BEA4EF03F0025007E1100E015CD8B03A
:10073C00A2EF03F0A4EF03F0D2EF03F00350041088
:10074C00D8B4ABEF03F0ADEF03F0BFEF03F001C093
:10075C0005F0F80E0526010E066E052AB8EF03F01B
:10076C00D8900636052EB6EF03F00650931284EFA0
:10077C0004F001C005F0F80E0526010E066E052AE0
:10078C00CAEF03F0D8900636052EC8EF03F00650DA
:10079C00FF0A931684EF04F002BEE0EF03F0025060
:1007AC0007E1180E015CD8B0DEEF03F0E0EF03F0C8
:1007BC000EEF04F003500410D8B4E7EF03F0E9EFA8
:1007CC0003F0FBEF03F001C005F0F00E0526010E5F
:1007DC00066E052AF4EF03F0D8900636052EF2EFDC
:1007EC0003F00650941284EF04F001C005F0F00EF3
:1007FC000526010E066E052A06EF04F0D890063683
:10080C00052E04EF04F00650FF0A941684EF04F052
:10081C0002BE1CEF04F0025007E1200E015CD8B0C0
:10082C001AEF04F01CEF04F04AEF04F0035004102C
:10083C00D8B423EF04F025EF04F037EF04F001C037
:10084C0005F0E80E0526010E066E052A30EF04F0C1
:10085C00D8900636052E2EEF04F00650951284EF34
:10086C0004F001C005F0E80E0526010E066E052AFF
:10087C0042EF04F0D8900636052E40EF04F00650F7
:10088C00FF0A951684EF04F002BE58EF04F00250F4
:10089C0007E1280E015CD8B056EF04F058EF04F0D5
:1008AC0084EF04F003500410D8B45FEF04F061EF50
:1008BC0004F073EF04F001C005F0E00E0526010E04
:1008CC00066E052A6CEF04F0D8900636052E6AEFFA
:1008DC0004F00650961284EF04F001C005F0E00E0F
:1008EC000526010E066E052A7EEF04F0D89006361A
:1008FC00052E7CEF04F00650FF0A9616120002BE7D
:10090C0093EF04F0025007E1080E015CD8B091EFB0
:10091C0004F093EF04F0BDEF04F003500410D8B4CE
:10092C009AEF04F09CEF04F0ACEF04F001C005F07A
:10093C00010E066E052AA5EF04F0D8900636052E9A
:10094C00A3EF04F006508012ABEF05F001C005F0E8
:10095C00010E066E052AB5EF04F0D8900636052E6A
:10096C00B3EF04F00650FF0A8016ABEF05F002BEA1
:10097C00CBEF04F0025007E1100E015CD8B0C9EFC8
:10098C0004F0CBEF04F0F9EF04F0F80E0126FF0EA3
:10099C00022203500410D8B4D6EF04F0D8EF04F0C0
:1009AC00E8EF04F001C005F0010E066E052AE1EF38
:1009BC0004F0D8900636052EDFEF04F006508112B5
:1009CC00ABEF05F001C005F0010E066E052AF1EF44
:1009DC0004F0D8900636052EEFEF04F00650FF0A0F
:1009EC008116ABEF05F002BE07EF05F0025007E1F0
:1009FC00180E015CD8B005EF05F007EF05F035EFE8
:100A0C0005F0F00E0126FF0E022203500410D8B49C
:100A1C0012EF05F014EF05F024EF05F001C005F01E
:100A2C00010E066E052A1DEF05F0D8900636052E30
:100A3C001BEF05F006508212ABEF05F001C005F07C
:100A4C00010E066E052A2DEF05F0D8900636052E00
:100A5C002BEF05F00650FF0A8216ABEF05F002BE35
:100A6C0043EF05F0025007E1200E015CD8B041EFD6
:100A7C0005F043EF05F071EF05F0E80E0126FF0ECF
:100A8C00022203500410D8B44EEF05F050EF05F0DD
:100A9C0060EF05F001C005F0010E066E052A59EF56
:100AAC0005F0D8900636052E57EF05F00650831248
:100ABC00ABEF05F001C005F0010E066E052A69EFDB
:100ACC0005F0D8900636052E67EF05F00650FF0AA4
:100ADC008316ABEF05F002BE7FEF05F0025007E185
:100AEC00280E015CD8B07DEF05F07FEF05F0ABEF81
:100AFC0005F0E00E0126FF0E022203500410D8B4BC
:100B0C008AEF05F08CEF05F09CEF05F001C005F0C5
:100B1C00010E066E052A95EF05F0D8900636052EC7
:100B2C0093EF05F006508412ABEF05F001C005F011
:100B3C00010E066E052AA5EF05F0D8900636052E97
:100B4C00A3EF05F00650FF0A84161200096EA3EC01
:100B5C000FF01B50011809E11C500218D8B4B9EF62
:100B6C0005F0BBEF05F085EF06F0A3EC0FF001C02C
:100B7C001BF002C01CF02DEC0CF00009D8B4C9EF2E
:100B8C0005F0CBEF05F085EF06F02DEC0CF02B6E9D
:100B9C0070EF06F0020E0618D8A4D7EF05F0D9EFC7
:100BAC0005F0F0EF05F00904D8A4DFEF05F0E1EF54
:100BBC0005F0F0EF05F0180E2E5C010E2F58D8B092
:100BCC00EAEF05F0ECEF05F0F0EF05F02E4A2F2AD6
:100BDC0085EF06F0020E0618D8A4F7EF05F0F9EF32
:100BEC0005F011EF06F0020E0918D8A400EF06F07C
:100BFC0002EF06F011EF06F0315007E1140E305CF5
:100C0C00D8B00BEF06F00DEF06F011EF06F0304AFE
:100C1C00312A85EF06F0020E0618D8A418EF06F05C
:100C2C001AEF06F085EF06F0030E0918D8A421EF91
:100C3C0006F023EF06F085EF06F0650E326029EF23
:100C4C0006F02BEF06F085EF06F0322A85EF06F062
:100C5C00020E0618D8A435EF06F037EF06F044EF75
:100C6C0006F00904D8A43DEF06F03FEF06F044EF80
:100C7C0006F02E06D8A02F0685EF06F0020E0618F9
:100C8C00D8A44BEF06F04DEF06F05BEF06F0020E2A
:100C9C000918D8A454EF06F056EF06F05BEF06F0F7
:100CAC003006D8A0310685EF06F0020E0618D8A43F
:100CBC0062EF06F064EF06F085EF06F0030E0918FC
:100CCC00D8A46BEF06F06DEF06F085EF06F0320658
:100CDC0085EF06F02B50076E086A0850000AD8B44E
:100CEC007AEF06F085EF06F00750440AD8B42EEFE1
:100CFC0006F0110AD8B4D0EF05F085EF06F012001B
:100D0C00000E956E000E1A6E05EC0AF09DEC0EF0BE
:100D1C0076EC0FF083EC0FF0A8EC0FF09CEC0DF0E0
:100D2C00000EDDEC0CF0920E0F6E060E106EC7EC82
:100D3C000DF00A0EF0EC0BF0010E67EC0FF0000E4C
:100D4C00026E180E016E000E046E000E036E85EC22
:100D5C0004F0000E026E190E016E000E046E000EF1
:100D6C00036E85EC04F0000E026E1A0E016E000E7E
:100D7C00046E000E036E85EC04F0000E026E1B0E6A
:100D8C00016E000E046E000E036E85EC04F0190E5D
:100D9C00026E640E016E47EC0FF02AEF07F027ECA1
:100DAC0009F0F7EF06F0335057EC0BF033C006F0B8
:100DBC003450ACEC05F010EF07F033500AEC0BF0AC
:100DCC0033C006F03450ACEC05F010EF07F03350A4
:100DDC00A4EC0BF033C006F03450ACEC05F010EF83
:100DEC0007F03450186E196A1950000AD8B401EF84
:100DFC0007F010EF07F01850010AD8B4D9EF06F03D
:100E0C00030AD8B4E3EF06F0010AD8B4EDEF06F00C
:100E1C0010EF07F0010E1A6E4BEF07F006EC08F01E
:100E2C00020E1A6E4BEF07F0B7EC0AF0030E1A6EB7
:100E3C004BEF07F013EC0DF0040E1A6E4BEF07F0AE
:100E4C00000E1A6E4BEF07F01A50186E196A1950F3
:100E5C00000AD8B434EF07F04BEF07F01850000A33
:100E6C00D8B4D5EF06F0010AD8B414EF07F0030A92
:100E7C00D8B41AEF07F0010AD8B420EF07F0070A2C
:100E8C00D8B426EF07F04BEF07F09BEC0FF0A5EF73
:100E9C0006F000EF00F002BE5FEF07F0025007E132
:100EAC00080E015CD8B05DEF07F05FEF07F073EF51
:100EBC0007F001C003F0010E046E032A68EF07F07F
:100ECC00D8900436032E66EF07F004508014056E9C
:100EDC000550016E026A05EF08F002BE81EF07F0C3
:100EEC00025007E1100E015CD8B07FEF07F081EFE4
:100EFC0007F097EF07F001C003F0F80E0326010E80
:100F0C00046E032A8CEF07F0D8900436032E8AEF78
:100F1C0007F004508114056E0550016E026A05EF4E
:100F2C0008F002BEA5EF07F0025007E1180E015CB5
:100F3C00D8B0A3EF07F0A5EF07F0BBEF07F001C0A7
:100F4C0003F0F00E0326010E046E032AB0EF07F037
:100F5C00D8900436032EAEEF07F004508214056EC1
:100F6C000550016E026A05EF08F002BEC9EF07F0EA
:100F7C00025007E1200E015CD8B0C7EF07F0C9EFB3
:100F8C0007F0DFEF07F001C003F0E80E0326010EB7
:100F9C00046E032AD4EF07F0D8900436032ED2EF58
:100FAC0007F004508314056E0550016E026A05EFBC
:100FBC0008F002BEEDEF07F0025007E1280E015CCD
:100FCC00D8B0EBEF07F0EDEF07F003EF08F001C03E
:100FDC0003F0E00E0326010E046E032AF8EF07F06F
:100FEC00D8900436032EF6EF07F004508414056EE7
:100FFC000550016E026A05EF08F0016802681200E4
:10100C00000E226E000E216E000E0E6E000E0D6E86
:10101C000EBE1AEF08F00E5009E1050E0D5CD8A0BB
:10102C001AEF08F01CEF08F01EEF08F07FEF08F045
:10103C000DC00AF0030E0A26010E0B6E000E0C6E8C
:10104C000A2A2CEF08F0D8900B360C360A2E29EF12
:10105C0008F00BC007F00CC008F01BEC0EF0000EF3
:10106C00026E0A0E016E51EC07F001500210D8B45A
:10107C0042EF08F044EF08F057EF08F00DC00AF00B
:10108C00010E0B6E000E0C6E0A2A50EF08F0D89071
:10109C000B360C360A2E4DEF08F00B5021120C506B
:1010AC002212000E026E090E016E51EC07F0015077
:1010BC000210D8B464EF08F066EF08F07BEF08F08C
:1010CC000DC00AF0050E0A26010E0B6E000E0C6EFA
:1010DC000A2A74EF08F0D8900B360C360A2E71EFF2
:1010EC0008F00B5021120C5022120D4A0E2A0EEF52
:1010FC0008F021501F1807E122502018D8A489EFBE
:10110C0008F08BEF08F08EEF08F02D0694EF08F046
:10111C00010E2D6E21C01FF022C020F02D50D8A43E
:10112C009AEF08F09CEF08F0A0EF08F01FC023F036
:10113C0020C024F01200000E0A6E08BEAAEF08F0C0
:10114C00A8EF08F0B4EF08F0081E071E061E056C89
:10115C00000E062207220822010E0A6E04BEBBEF07
:10116C0008F0B9EF08F0C5EF08F0041E031E021ECC
:10117C00016C000E022203220422010E0A1A000E38
:10118C000B6E000E0C6E000E0D6E000E0E6E0550EA
:10119C00061007100810D8B4D6EF08F0D8EF08F0F6
:1011AC000EEF09F0010E096EE2EF08F0D89005364B
:1011BC00063607360836092A08AEE7EF08F0E9EFDD
:1011CC0008F0DCEF08F0D8900B360C360D360E36E6
:1011DC000550015C0650025807500358085004583B
:1011EC00D8A0FBEF08F0FDEF08F006EF09F0055072
:1011FC00015E0650025A0750035A0850045A0B80DD
:10120C00D8900832073206320532092EE9EF08F081
:10121C000A50D8B414EF09F016EF09F01EEF09F0DC
:10122C000E1E0D1E0C1E0B6C000E0C220D220E221F
:10123C000BC001F00CC002F00DC003F00EC004F0A6
:10124C001200A3EC0FF01D50011809E11E500218FA
:10125C00D8B433EF09F035EF09F0A2EF09F0A3ECA5
:10126C000FF001C01DF002C01EF02DEC0CF00009B7
:10127C00D8B443EF09F045EF09F0A2EF09F02DECDB
:10128C000CF02C6E520E2C18D8A44FEF09F051EF25
:10129C0009F062EF09F03304D8A457EF09F059EFC5
:1012AC0009F062EF09F0040E34605FEF09F061EFB2
:1012BC0009F062EF09F0342A4C0E2C18D8A469EF0F
:1012CC0009F06BEF09F07CEF09F03304D8A471EF4F
:1012DC0009F073EF09F07CEF09F03450D8B479EFD2
:1012EC0009F07BEF09F07CEF09F03406730E2C1833
:1012FC00D8A483EF09F085EF09F08EEF09F0030E07
:10130C0033608BEF09F08DEF09F08EEF09F0332A83
:10131C00530E2C18D8A495EF09F097EF09F0A2EF13
:10132C0009F03350D8B49DEF09F09FEF09F0A2EF0C
:10133C0009F03306A2EF09F01200000E066E04BE8F
:10134C00ACEF09F0AAEF09F0B2EF09F0036C041E40
:10135C00D8B0042A010E066E02BEB9EF09F0B7EF41
:10136C0009F0BFEF09F0016C021ED8B0022A010E81
:10137C00061A000E086E000E076E03500410D8B447
:10138C00CAEF09F0CCEF09F0F4EF09F0010E056E8D
:10139C00D4EF09F0D89003360436052A04AED9EF01
:1013AC0009F0DBEF09F0D0EF09F0D89007360836DA
:1013BC000350015C04500258D8A0E7EF09F0E9EFA4
:1013CC0009F0EEEF09F00350015E0450025A078059
:1013DC00D89004320332052EDBEF09F00650D8B456
:1013EC00FAEF09F0FCEF09F000EF0AF0076C081EA9
:1013FC00D8B0082A07C001F008C002F01200000E95
:10140C00026E1C0E016E000E046E000E036E5EEC7E
:10141C0003F0000E026E1D0E016E000E046E000E27
:10142C00036E5EEC03F063EC0EF0000E026E0F0E1A
:10143C00016EB6EC0EF0000E0B6E000E0A6E030E73
:10144C0034EC0FF0000E026E050E016EB6EC0EF0D1
:10145C00000E0B6E000E0A6E030E34EC0FF0000E35
:10146C00026EA00E016EB0EC0FF0000E0B6E000EB3
:10147C000A6E030E34EC0FF0000E026EA00E016E1D
:10148C00B0EC0FF0000E0B6E000E0A6E020E34EC78
:10149C000FF0000E026E0A0E016EB6EC0EF0280E66
:1014AC0067EC0FF00C0E67EC0FF0010E67EC0FF011
:1014BC001200000E0E6E0ABE68EF0AF066EF0AF01C
:1014CC006EEF0AF0096C0A1ED8B00A2A010E0E6ED5
:1014DC000CBE75EF0AF073EF0AF079EF0AF00B6CA3
:1014EC000C1ED8B00C2A0B500C10D8B480EF0AF09C
:1014FC0082EF0AF0A6EF0AF0010E0D6E8AEF0AF0E9
:10150C00D8900B360C360D2A0CAE8FEF0AF091EFFB
:10151C000AF086EF0AF00B50095C0C500A58D8A060
:10152C009AEF0AF09CEF0AF0A0EF0AF00B50095E5C
:10153C000C500A5AD8900C320B320D2E91EF0AF047
:10154C000E50D8B4ACEF0AF0AEEF0AF0B2EF0AF0DE
:10155C00096C0A1ED8B00A2A09C009F00AC00AF0A0
:10156C001200CEEC0EF0046E0450D8B4C0EF0AF0AA
:10157C00C2EF0AF009EF0BF0E8EF0AF0540E90EC12
:10158C000FF02E4A2F2A09EF0BF0700E90EC0FF093
:10159C002E06D8A02F0609EF0BF0500E90EC0FF092
:1015AC00304A312A09EF0BF0700E90EC0FF0300638
:1015BC00D8A0310609EF0BF04E0E90EC0FF032066E
:1015CC0009EF0BF00450026E036A0350000AD8B402
:1015DC00F2EF0AF009EF0BF002504E0AD8B4E2EF2A
:1015EC000AF01E0AD8B4D3EF0AF0040AD8B4C4EF38
:1015FC000AF0240AD8B4DAEF0AF0040AD8B4CBEF14
:10160C000AF009EF0BF01200176E41EF0BF0800E91
:10161C0067EC0FF0700E0F6E060E106EC7EC0DF02F
:10162C00C00E67EC0FF01B0E0F6E060E106EC7ECA3
:10163C000DF056EF0BF0800E67EC0FF02C0E0F6ECA
:10164C00060E106EC7EC0DF0C00E67EC0FF0270EF7
:10165C000F6E060E106EC7EC0DF030C00FF031C0DF
:10166C0010F0A3EC0CF0B10E0F6E060E106EC7EC62
:10167C000DF056EF0BF01750156E166A1650000A47
:10168C00D8B44BEF0BF056EF0BF01550010AD8B451
:10169C000DEF0BF0030AD8B421EF0BF056EF0BF063
:1016AC001200176E8EEF0BF0800E67EC0FF0810EB0
:1016BC000F6E060E106EC7EC0DF0C00E67EC0FF03F
:1016CC001B0E0F6E060E106EC7EC0DF0A3EF0BF099
:1016DC00800E67EC0FF04E0E0F6E060E106EC7EC00
:1016EC000DF0C00E67EC0FF0270E0F6E060E106E8D
:1016FC00C7EC0DF02EC00FF02FC010F0A3EC0CF0C7
:10170C00A80E0F6E060E106EC7EC0DF0A3EF0BF0CB
:10171C001750156E166A1650000AD8B498EF0BF0D5
:10172C00A3EF0BF01550010AD8B45AEF0BF0030AD3
:10173C00D8B46EEF0BF0A3EF0BF01200176EDAEFCC
:10174C000BF0800E67EC0FF03D0E0F6E060E106E58
:10175C00C7EC0DF0C00E67EC0FF01B0E0F6E060EF3
:10176C00106EC7EC0DF0EFEF0BF0800E67EC0FF086
:10177C005F0E0F6E060E106EC7EC0DF0C00E67EC10
:10178C000FF0270E0F6E060E106EC7EC0DF032C068
:10179C000FF0106AA3EC0CF09F0E0F6E060E106E7D
:1017AC00C7EC0DF0EFEF0BF01750156E166A1650D4
:1017BC00000AD8B4E4EF0BF0EFEF0BF01550010A70
:1017CC00D8B4A7EF0BF0030AD8B4BBEF0BF0EFEFD4
:1017DC000BF01200016E000E026E23EF0CF0000EE7
:1017EC00036E630E0364FDEF0BF0FFEF0BF001EFE4
:1017FC000CF022EF0CF0000E046E280E046409EFBE
:10180C000CF00BEF0CF00DEF0CF01FEF0CF0000ECA
:10181C00056E020E056415EF0CF017EF0CF019EFC6
:10182C000CF01CEF0CF0052A0FEF0CF0042A03EF60
:10183C000CF0032AF7EF0BF0022A0150025CD8A03F
:10184C002AEF0CF02CEF0CF0F5EF0BF01200000E61
:10185C00056E000E046E04C001F0010E026E000E47
:10186C00036E012A3DEF0CF0D89002360336012EA0
:10187C003AEF0CF0235002162450031602500310BA
:10188C00D8B44BEF0CF04DEF0CF057EF0CF0110EF1
:10189C000424F66E060E0520F76E0800F55068EF6E
:1018AC000CF0044A052A05BE65EF0CF0055009E161
:1018BC000A0E045CD8A065EF0CF067EF0CF031EF6A
:1018CC000CF0000E1200000E066E000E056E03509A
:1018DC000410D8B474EF0CF076EF0CF09EEF0CF013
:1018EC00010E076E7EEF0CF0D89003360436072AF3
:1018FC0004AE83EF0CF085EF0CF07AEF0CF0D8907F
:10190C00053606360350015C04500258D8A091EFFE
:10191C000CF093EF0CF098EF0CF00350015E0450B8
:10192C00025A0580D89004320332072E85EF0CF052
:10193C0005C001F006C002F01200030E126EE80E94
:10194C00116ECFEF0CF011C003F012C004F00FC0F9
:10195C0001F010C002F0A3EC09F001C009F002C0C4
:10196C000AF0000E0C6E0A0E0B6E5FEC0AF00950BA
:10197C00300F58EC0FF011C001F012C002F0000E45
:10198C00046E0A0E036EA3EC09F001C011F002C044
:10199C0012F012BEDCEF0CF0125006E11104D8B0BC
:1019AC00DAEF0CF0DCEF0CF0A9EF0CF012000A6E81
:1019BC00010ECB24016E026A000E02220AC003F053
:1019CC00046A0EEC0FF001C00BF002C00CF00BC05F
:1019DC0001F00CC002F0000E046E190E036E69ECDF
:1019EC000CF001C00BF002C00CF0FF0E0B16030E36
:1019FC000C160BC008F00CC009F0D8900932083254
:101A0C00D890093208320850BB6E0BC008F0030E98
:101A1C0008160838F00BBA121200315007E1150EF7
:101A2C00305CD8B01CEF0DF01EEF0DF029EF0DF06F
:101A3C002D0E2E5C010E2F58D8A027EF0DF029EF9C
:101A4C000DF03DEF0DF0000E026E180E016E000E43
:101A5C00046E010E036E85EC04F0000E0F6E540E36
:101A6C0070EC0DF0640EDDEC0CF042EF0DF0000E9E
:101A7C00DDEC0CF0020E836E12000D6E0DC00CF03E
:101A8C000C3A0F0E0C160C50076E086A1BEC0EF07D
:101A9C00000E026E1D0E016E0AC003F00BC004F0A6
:101AAC0085EC04F042EC0EF00DC00CF00F0E0C1691
:101ABC000C50076E086A1BEC0EF0000E026E1D0E29
:101ACC00016E0AC003F00BC004F085EC04F042EC8C
:101ADC000EF01200106E0F50D8A477EF0DF079EFC6
:101AEC000DF07BEF0DF010C028F00F04D8A481EF9F
:101AFC000DF083EF0DF085EF0DF010C027F0020E06
:101B0C000F18D8A48CEF0DF08EEF0DF090EF0DF0B8
:101B1C0010C026F0030E0F18D8A497EF0DF099EF14
:101B2C000DF09BEF0DF010C025F01200000E026EB0
:101B3C00180E016E000E046E000E036E5EEC03F0C8
:101B4C00000E026E190E016E000E046E000E036E76
:101B5C005EEC03F0000E026E1A0E016E000E046EA7
:101B6C00000E036E5EEC03F0000E026E1B0E016E97
:101B7C00000E046E000E036E5EEC03F063EC0EF0D0
:101B8C001200000E146E000E136EDDEF0DF01350EC
:101B9C000F24116E14501020126E11C0F6FF12C0DB
:101BAC00F7FF0800F55058EC0FF0134A142A1350A5
:101BBC000F24116E14501020126E11C0F6FF12C0BB
:101BCC00F7FF0800F5500009D8A4EFEF0DF0F1EF86
:101BDC000DF0CDEF0DF01200020E0F6E000E046E24
:101BEC000A0E036E000E026E0F0E016EA3EC09F0CE
:101BFC0001C009F002C00AF0000E0C6E0A0E0B6E4A
:101C0C005FEC0AF0095070EC0DF0030E0F6E000E35
:101C1C000A6E0F0E096E000E0C6E0A0E0B6E5FEC48
:101C2C000AF0095070EC0DF01200000E026E080E56
:101C3C00016E000E046E000E036E85EC04F0000EB7
:101C4C00096E000E026E1E0E016E800E0714036EDE
:101C5C00046A85EC04F0F9EC0EF0D89007360836DF
:101C6C00092A070E09643DEF0EF03FEF0EF027EF47
:101C7C000EF0E4EC0EF01200000E026E1C0E016E63
:101C8C00000E046E010E036E85EC04F0000E026E65
:101C9C00050E016EB0EC0FF0000E026E1C0E016E04
:101CAC00000E046E000E036E85EC04F0000E026E46
:101CBC00050E016EB0EC0FF01200000E026E1F0E3E
:101CCC00016E000E046E000E036E5EEC03F0000E4F
:101CDC00026E080E016E000E046E000E036E5EECBA
:101CEC0003F0000E026E1E0E016E000E046E000E4E
:101CFC00036E5EEC03F01200580EF66E1F0EF76EBC
:101D0C00000EF86E00EE2EF010EE07F00900F5CF85
:101D1C00EEFFE550E150FAE100EE1BF0130EEE6A17
:101D2C00E806FDE1000EF86E000186EF06F063ECAC
:101D3C000EF0000E026E0A0E016E000E046E010E05
:101D4C00036E5EEC03F0000E026E090E016E000EC7
:101D5C00046E010E036E5EEC03F00C0EC16E1200ED
:101D6C00000E056E000E046EBEEF0EF0044A052A3E
:101D7C000150045C0550800A036E0250800A03581F
:101D8C00D8A0CBEF0EF0CDEF0EF0BCEF0EF01200A2
:101D9C00000E016EABA2D5EF0EF0D7EF0EF0D9EF1F
:101DAC000EF0AB98AB889EAADEEF0EF0E0EF0EF0D3
:101DBC00E2EF0EF0AECF01F001501200000E026EF9
:101DCC001F0E016E000E046E010E036E85EC04F006
:101DDC00000E026E1F0E016E000E046E000E036EDE
:101DEC0085EC04F01200000E026E080E016E000E5F
:101DFC00046E010E036E85EC04F0000E026E080EEC
:101E0C00016E000E046E000E036E85EC04F01200E1
:101E1C0001500302F3CF05F0F4CF06F00150040299
:101E2C00F350062602500302F350062605C001F0BB
:101E3C0006C002F01200480E016EE80E026E010E92
:101E4C00036E000E046E0FC005F010C006F0076A9A
:101E5C00086AA1EC08F00104CB6E12000C6E0CC0E9
:101E6C0007F0086A1BEC0EF0000E026E1D0E016EE0
:101E7C000AC003F00BC004F085EC04F042EC0EF049
:101E8C001200D8900134036E0234046E031E041E3B
:101E9C00320E035E000E045A0450D76E03C0D6FFF8
:101EAC00F29412000E6E000E0B6E010E0A6E0E50A6
:101EBC0043EC0DF0000E026E500E016EB0EC0FF004
:101ECC0012000E6E000E0B6E000E0A6E0E5043ECDE
:101EDC000DF0000E026E020E016EB6EC0EF012004A
:101EEC002C0EAC6E900EAB6E080EB86E000EB06E73
:101EFC00220EAF6E948C948E12009492030ECA1222
:101F0C00CA840C0EBA6E000E106E640E0F6E21ECAD
:101F1C000FF01200016E9EA896EF0FF098EF0FF0E5
:101F2C0091EF0FF001C0ADFF1200F2A4A0EF0FF083
:101F3C00A2EF0FF09BEF0FF0120023C001F024C0B2
:101F4C0002F01200080ED56ED58E1200FA000F00AA
:031F5C0050010130
:021F600012006D
:020000040020DA
:08000000FFFFFFFFFFFFFFFF00
:020000040030CA
:0E000000FF027100FF8380FF0FC00FE00F4072
:00000001FF
